:0400000007EF00F016
:0A0008007C820BED08F0FCEF0BF01A
:10100000003738392F3435362A3132332D63303DAD
:051010002B2569000022
:101016000600F2A811EF08F013EF08F01CEF08F035
:10102600F2A218EF08F01AEF08F01CEF08F086ECB1
:101036000CF0F0A621EF08F023EF08F02CEF08F0F3
:10104600F0A028EF08F02AEF08F02CEF08F084EC67
:101056000CF0F0A831EF08F033EF08F03CEF08F0A1
:10106600F0A238EF08F03AEF08F03CEF08F082EC17
:101076000CF09DAC41EF08F043EF08F04CEF08F0A0
:101086009EAC48EF08F04AEF08F04CEF08F092ECFF
:101096000CF0F2AA51EF08F053EF08F05CEF08F0FD
:1010A600F2A458EF08F05AEF08F05CEF08F075EC80
:1010B6000CF09DA061EF08F063EF08F06CEF08F00C
:1010C6009EA068EF08F06AEF08F06CEF08F06FEC8E
:1010D6000CF09DA271EF08F073EF08F07CEF08F0BA
:1010E6009EA278EF08F07AEF08F07CEF08F07BEC30
:1010F6000CF0A0A281EF08F083EF08F08CEF08F067
:10110600A1A288EF08F08AEF08F08CEF08F069ECEE
:101116000CF09DA491EF08F093EF08F09CEF08F017
:101126009EA498EF08F09AEF08F09CEF08F090EC78
:101136000CF0A0A0A1EF08F0A3EF08F0ACEF08F0C8
:10114600A1A0A8EF08F0AAEF08F0ACEF08F08EEC2B
:101156000CF09DA8B1EF08F0B3EF08F0BCEF08F073
:101166009EA8B8EF08F0BAEF08F0BCEF08F08CECD8
:101176000CF09DAAC1EF08F0C3EF08F0CCEF08F021
:101186009EAAC8EF08F0CAEF08F0CCEF08F095EC7D
:101196000CF09DA6D1EF08F0D3EF08F0DCEF08F0D5
:1011A6009EA6D8EF08F0DAEF08F0DCEF08F088EC3E
:1011B6000CF0A0A6E1EF08F0E3EF08F0ECEF08F082
:1011C600A1A6E8EF08F0EAEF08F0ECEF08F08AECE9
:1011D6000CF09DA6F1EF08F0F3EF08F0FCEF08F035
:1011E6009EA6F8EF08F0FAEF08F0FCEF08F094EC92
:1011F6000CF07C921100000E7A6E76507710D8A40F
:1012060007EF09F009EF09F00DEF09F0000E7B6E0C
:1012160099EF09F076C06EF077C06FF061EC0BF0D5
:101226007B6E010E76246E6E000E77206F6E61EC7B
:101236000BF07B6E000E7A6E7A507624786E000E76
:101246007720796E020E78246E6E000E79206F6E0E
:1012560061EC0BF07A2A030E7A6434EF09F036EF6C
:1012660009F01FEF09F0340E786EF20EE82EFED765
:10127600782EFCD776C072F077C073F0380E746E95
:10128600F1EC0AF00D0E786EFC0EE82EFED7782EE5
:10129600FCD776C072F077C073F0380E746EF1EC3E
:1012A6000AF0020E796E860E786E990EE82EFED73B
:1012B600782EFCD7792EFAD700F076C072F077C078
:1012C60073F0380E746EF1EC0AF076C072F077C0E7
:1012D60073F0010E746EF1EC0AF076C072F077C00E
:1012E60073F0020E746EF1EC0AF076C072F077C0FD
:1012F60073F0060E746EF1EC0AF076C072F077C0E9
:1013060073F00C0E746EF1EC0AF076C072F077C0D2
:1013160073F0280E746EF1EC0AF076C072F077C0A6
:1013260073F0800E746EF1EC0AF07B6E7B50120047
:10133600010E6C6E64506510D8A4A4EF09F0A6EFF8
:1013460009F009EF0AF0000E6C6E2AEF0AF064C08D
:10135600D9FF65C0DAFFDF30E832E832070B666E88
:10136600010E676E662ABAEF09F0D8906736662EC8
:10137600B8EF09F06750FF0A686E64C0D9FF65C010
:10138600DAFFDF50070B696E6950020D8A0EF324EF
:10139600D96E000EF420DA6EDECF6AF0DDCF6BF088
:1013A6006AC0D9FF6BC0DAFF6850DF162AEF0AF071
:1013B60064C0D9FF65C0DAFFDF30E832E832070BD8
:1013C600666E010E676E662AEBEF09F0D8906736F7
:1013D600662EE9EF09F064C0D9FF65C0DAFFDF5079
:1013E600070B686E6850020D8A0EF324D96E000E44
:1013F600F420DA6EDECF69F0DDCF6AF069C0D9FF7E
:101406006AC0DAFF6750DF122AEF0AF064C0D9FF1C
:1014160065C0DAFFDFBC12EF0AF015EF0AF0010E25
:1014260016EF0AF0000E666E676A6750000AD8B4B7
:101436001FEF0AF0A6EF09F06650000AD8B4AAEF2B
:1014460009F0010AD8B4DBEF09F0A6EF09F06C50F9
:101456001200010E6D6E64506510D8A435EF0AF0C7
:1014660037EF0AF09AEF0AF0000E6D6EAFEF0AF052
:1014760064C0D9FF65C0DAFFDF30E832E832070B17
:10148600676E010E686E672A4BEF0AF0D8906836D1
:10149600672E49EF0AF06850FF0A696E64C0D9FFEB
:1014A60065C0DAFFDF50070B6A6E6A50020D440E04
:1014B600F324D96E000EF420DA6EDECF6BF0DDCFAA
:1014C6006CF06BC0D9FF6CC0DAFF6950DF16AFEF66
:1014D6000AF064C0D9FF65C0DAFFDF30E832E832CF
:1014E600070B676E010E686E672A7CEF0AF0D890CC
:1014F6006836672E7AEF0AF064C0D9FF65C0DAFF56
:10150600DF50070B696E6950020D440EF324D96E45
:10151600000EF420DA6EDECF6AF0DDCF6BF06AC023
:10152600D9FF6BC0DAFF6850DF12AFEF0AF06650E2
:10153600676E686A6850000AD8B4A4EF0AF037EFFD
:101546000AF06750000AD8B43BEF0AF0010AD8B493
:101556006CEF0AF037EF0AF06D501200000E776E4E
:10156600000E786E72507310D8A4BCEF0AF0BEEF6E
:101576000AF0C2EF0AF0000E766EEFEF0AF0000EE8
:10158600776E775072246E6E000E73206F6E61EC6C
:101596000BF0772A030E7764D3EF0AF0D5EF0AF043
:1015A600C4EF0AF0000E786E78507224746E000E46
:1015B6007320756E040E74246E6E000E75206F6EA9
:1015C60061EC0BF0766E782A030E7864EDEF0AF084
:1015D600EFEF0AF0D7EF0AF0765012007250731050
:1015E600D8A4F8EF0AF0FAEF0AF0FEEF0AF0000EC0
:1015F600756E28EF0BF072C064F073C065F0000ED4
:10160600666E2CEC0AF0756E72C06EF073C06FF0E9
:1016160074380F0B706E97EC0BF0756E72C06EF02F
:1016260073C06FF027EC0CF0756E72C06EF073C06D
:101636006FF074C070F097EC0BF0756E72C06EF0C0
:1016460073C06FF027EC0CF0756E75501200940E97
:10165600726E000E736EB1EC0AF09C0E766E000E82
:10166600776EFEEC08F0590E726E000E736ECBECC0
:101676000BF0630E6E6E000E6F6E61EC0BF0620E79
:101686006E6E000E6F6E61EC0BF0610E6E6E000EEC
:101696006F6E61EC0BF0600E6E6E000E6F6E61EC9D
:1016A6000BF05F0E6E6E000E6F6E61EC0BF05E0E51
:1016B6006E6E000E6F6E61EC0BF012006E506F10C6
:1016C600D8B468EF0BF06AEF0BF07BEF0BF06EC04F
:1016D600D9FF6FC0DAFFDF30E832E832070B706EF1
:1016E600070E706479EF0BF07BEF0BF07FEF0BF0DA
:1016F600000E716E95EF0BF06EC064F06FC065F072
:101706009BEC09F0716E6EC064F06FC065F06EC040
:10171600D9FF6FC0DAFF000EDFBE010E666E2CEC3D
:101726000AF0716E71501200020E6E24646E000E85
:101736006F20656E7050010B666E2CEC0AF0030E7E
:101746006E24646E000E6F20656ED8907030010BAB
:10175600666E2CEC0AF0040E6E24646E000E6F208A
:10176600656E7040E8423F0B010B666E2CEC0AF08A
:10177600050E6E24646E000E6F20656E7038E846A6
:101786001F0B010B666E2CEC0AF0716E7150120085
:1017960072507310D8A4D2EF0BF0D4EF0BF0D8EF41
:1017A6000BF0000E746EFAEF0BF072C06EF073C0A1
:1017B6006FF061EC0BF0746E010E72246E6E000E0B
:1017C60073206F6E61EC0BF0746E020E72246E6EF7
:1017D600000E73206F6E61EC0BF0746E030E7224B4
:1017E6006E6E000E73206F6E61EC0BF0746E7450AB
:1017F6001200840EF66E180EF76E000EF86E00EEEE
:1018060080F010EE22F00900F5CFEEFFE550E15032
:10181600FAE1A60EF66E180EF76E000EF86E00EEE2
:1018260044F010EE20F00900F5CFEEFFE550E15050
:10183600FAE100EE01F0430EEE6AE806FDE17C9067
:101846007C92000163EF0CF0010E6E24646E000EB4
:101856006F20656E010E666E2CEC0AF0030EE82E04
:10186600FED700F0010E6E24646E000E6F20656ECA
:10187600000E666E2CEC0AF0706E70501200800F2F
:10188600810F820F830F840F920F930F940F950F82
:10189600960F01091119212931390008222A323AF5
:1018A600890F8A0F8B0F8C0F8D0F685A622A1A6266
:1018B6002A01010101020A121A002B231B130B0332
:1018C6007FEC0CF065EF0CF007EF00F09E900850EF
:1018D600B36E07C0B2FF12009E901050CF6E0FC0BD
:1018E600CEFF1200F2941450D76E13C0D6FF12002A
:1018F6009E920BC0CCFF12002AEC0BF01200F09265
:101906001200F2921200F29212009E961200A19616
:1019160012009D981200A19012009E9412009E9CA7
:0619260012001200120085
:020000040020DA
:08000000FFFFFFFFFFFFFFFF00
:020000040030CA
:0E000000FF02091EFF8181FF0FC00FE00F40BD
:00000001FF
